{
  "result": {
    "txid": "3ca31dd628d8ddebcfdabece4524069abeca486969a8491a6408c9332989115f",
    "hash": "3ca31dd628d8ddebcfdabece4524069abeca486969a8491a6408c9332989115f",
    "version": 1,
    "size": 1408,
    "vsize": 1408,
    "weight": 5632,
    "locktime": 0,
    "vin": [
      {
        "txid": "a1196aa8e29df542522691bec35da009ddcce296465856a3a66ea24b0bdcb118",
        "vout": 0,
        "scriptSig": {
          "asm": "304502200be581153a8b8705d8234f195b1ad53029ebf37ace8a8fbcb238931cf874ad64022100f7e316b580be80a88f674f75cf95615ca8a1431b06fa269ef2c5c23c64bd1b19[ALL] 0301ebc9b8081a2353511aae29c49a667e699cd72178fb216cf40c87d60334c646",
          "hex": "48304502200be581153a8b8705d8234f195b1ad53029ebf37ace8a8fbcb238931cf874ad64022100f7e316b580be80a88f674f75cf95615ca8a1431b06fa269ef2c5c23c64bd1b1901210301ebc9b8081a2353511aae29c49a667e699cd72178fb216cf40c87d60334c646"
        },
        "sequence": 4294967295
      },
      {
        "txid": "39dc69c03c049d0541024c600122b483c70bef9f37f7c4a401a73bd0bba5316c",
        "vout": 1,
        "scriptSig": {
          "asm": "3045022100e7697d7668dc371a9a9c0ace6384309f28a00d54a65e524ebdd33c07e4b2171c02204fc6761e928f119f721d37458d52e9e2b7f434771d483dc49bfc6df036a67b19[ALL] 028c204740b1874cff2ab94950fb8287652c0c6d102f854fa8386b251ff6917898",
          "hex": "483045022100e7697d7668dc371a9a9c0ace6384309f28a00d54a65e524ebdd33c07e4b2171c02204fc6761e928f119f721d37458d52e9e2b7f434771d483dc49bfc6df036a67b190121028c204740b1874cff2ab94950fb8287652c0c6d102f854fa8386b251ff6917898"
        },
        "sequence": 4294967295
      },
      {
        "txid": "7dab7d50c5aa0ab80ed0075b5af38e6645aefa11099e208c737095bc97946744",
        "vout": 0,
        "scriptSig": {
          "asm": "3045022047a78e6507f746db397a259db4648c465053e05a39dd83595429ae36cecbb289022100b3dd347f0900bb24d95395964b5f870919138a184e238ed1452b5b2f728585f6[ALL] 033d58b1f2824057b9b6739fd0744b6ef94b3e4f6ef106e8efb0b47250aae4b6b5",
          "hex": "483045022047a78e6507f746db397a259db4648c465053e05a39dd83595429ae36cecbb289022100b3dd347f0900bb24d95395964b5f870919138a184e238ed1452b5b2f728585f60121033d58b1f2824057b9b6739fd0744b6ef94b3e4f6ef106e8efb0b47250aae4b6b5"
        },
        "sequence": 4294967295
      },
      {
        "txid": "e9f7eb755455d3ae8d40e465f4b1393a26b44ad00f587361df2a10435bb51bcb",
        "vout": 0,
        "scriptSig": {
          "asm": "304402206c5b5a0720a3858f9102133ec736146a732449a23fbfb1d896fb57d3980c4d0302206aea8265c21dfaefe39b03c5951575e62207307f21bf3d1096076f383c3afca5[ALL] 020606a8eb10a6cef0dfcd5fd887fd1a80881d152b335f31553ad20acaa9aa3484",
          "hex": "47304402206c5b5a0720a3858f9102133ec736146a732449a23fbfb1d896fb57d3980c4d0302206aea8265c21dfaefe39b03c5951575e62207307f21bf3d1096076f383c3afca50121020606a8eb10a6cef0dfcd5fd887fd1a80881d152b335f31553ad20acaa9aa3484"
        },
        "sequence": 4294967295
      },
      {
        "txid": "2033ffca956436c269ab52b3c89ede4295640113e99e9397ec22eaeb3b4636bf",
        "vout": 0,
        "scriptSig": {
          "asm": "3046022100c13b3394563b914a67a0e1d7f9480ea2894804e0fc45e70da5bc85285f67fe3e022100a3424e58312cc7be2794c8090eaafa5357e0435f9d32cb231dccbfce63b61e00[ALL] 0292f0fb63ba930548f836b21cc148b6a73a10c993f3080138ac2603dbd349a096",
          "hex": "493046022100c13b3394563b914a67a0e1d7f9480ea2894804e0fc45e70da5bc85285f67fe3e022100a3424e58312cc7be2794c8090eaafa5357e0435f9d32cb231dccbfce63b61e0001210292f0fb63ba930548f836b21cc148b6a73a10c993f3080138ac2603dbd349a096"
        },
        "sequence": 4294967295
      },
      {
        "txid": "b642ef9a582bd7457e5de848e15f191f42d49e9c9c8636174a5652b20980c172",
        "vout": 0,
        "scriptSig": {
          "asm": "3045022004a96f6ab54a09dfd8d9c21519035b254c1273031defd38600e66369512fb95c022100ef2fa383202fb336c388b48cba17e21e01e06603464554fbdb34d02eb44afffc[ALL] 0376133a5d666d8d32e2b925934561650335b2bf47d8b23b31d30c125cc4c14707",
          "hex": "483045022004a96f6ab54a09dfd8d9c21519035b254c1273031defd38600e66369512fb95c022100ef2fa383202fb336c388b48cba17e21e01e06603464554fbdb34d02eb44afffc01210376133a5d666d8d32e2b925934561650335b2bf47d8b23b31d30c125cc4c14707"
        },
        "sequence": 4294967295
      },
      {
        "txid": "72713385cd0c1f415ac6f1596aaa367d59bcb687d1281315b234038dd2a6c888",
        "vout": 0,
        "scriptSig": {
          "asm": "3044022060ba56f46ce98c23acbb92249f95b9138379d049a0fe78b5ea32028ed780fb2702200fca919394b74ea3379fc42bd58bcaa1323e6edba3cb42b04ce8a5335fde3953[ALL] 028bb260f63c330e98068e4d8b2df88cbd4a789fc8a177e7125125b0657f8c3b6a",
          "hex": "473044022060ba56f46ce98c23acbb92249f95b9138379d049a0fe78b5ea32028ed780fb2702200fca919394b74ea3379fc42bd58bcaa1323e6edba3cb42b04ce8a5335fde39530121028bb260f63c330e98068e4d8b2df88cbd4a789fc8a177e7125125b0657f8c3b6a"
        },
        "sequence": 4294967295
      },
      {
        "txid": "577a7b7ac04c9c00db9c7d118075e8bc5162fc900fd2526b82ab75837002fe26",
        "vout": 0,
        "scriptSig": {
          "asm": "3045022100ebac9223e9d003bfd7b23fa6a4a7cc78246a96fabe4897d9b7fff75c6dff2adf02204d85bb02ae24685cb00e186fc6c5784a1ac94b2956909304ab3466532fa6e79a[ALL] 028a4577ca607dd40a3ff0742a33539f1455f9bb4bc7846683a4a338644a9bd725",
          "hex": "483045022100ebac9223e9d003bfd7b23fa6a4a7cc78246a96fabe4897d9b7fff75c6dff2adf02204d85bb02ae24685cb00e186fc6c5784a1ac94b2956909304ab3466532fa6e79a0121028a4577ca607dd40a3ff0742a33539f1455f9bb4bc7846683a4a338644a9bd725"
        },
        "sequence": 4294967295
      },
      {
        "txid": "760755fed67c1b2441e3c0fa217162b006d876cc5cd91431d4c0fc0112c73675",
        "vout": 0,
        "scriptSig": {
          "asm": "Questo e' 'output",
          "hex": "47304402207d5022f0e7b24700b5abe9807abbf98cec192572192f4751c71ac79f5a5c40f7022027331bc374181bea0d793be6e08d91a67fba545692fb1fba7ce955146dbadbc10121039eb833f29897c9260ca496bde8214ba4fb118ccb8874d418c8df5d436fd1ced7"
        },
        "sequence": 4294967295
      }
    ],
    "vout": [
      {
        "value": 0.01002895,
        "n": 0,
        "scriptPubKey": {
          "asm": "OP_DUP OP_HASH160 b9c5afba618caa806e3c847d5edca95c30c9d134 OP_EQUALVERIFY OP_CHECKSIG",
          "hex": "76a914b9c5afba618caa806e3c847d5edca95c30c9d13488ac",
          "reqSigs": 1,
          "type": "pubkeyhash",
          "addresses": [
            "1HwGpz2DC3Mms39gVXihX3YLJBrLBnQoNA"
          ]
        }
      },
      {
        "value": 290.75100000,
        "n": 1,
        "scriptPubKey": {
          "asm": "OP_DUP OP_HASH160 716311bdfb6b4cc9a3046a0dc250ac8f1cf853f9 OP_EQUALVERIFY OP_CHECKSIG",
          "hex": "76a914716311bdfb6b4cc9a3046a0dc250ac8f1cf853f988ac",
          "reqSigs": 1,
          "type": "pubkeyhash",
          "addresses": [
            "1BLY38hrXijgLnCCvvasqsA4H4JaMDQsDi"
          ]
        }
      }
    ],
    "hex": "010000000918b1dc0b4ba26ea6a356584696e2ccdd09a05dc3be91265242f59de2a86a19a1000000006b48304502200be581153a8b8705d8234f195b1ad53029ebf37ace8a8fbcb238931cf874ad64022100f7e316b580be80a88f674f75cf95615ca8a1431b06fa269ef2c5c23c64bd1b1901210301ebc9b8081a2353511aae29c49a667e699cd72178fb216cf40c87d60334c646ffffffff6c31a5bbd03ba701a4c4f7379fef0bc783b42201604c0241059d043cc069dc39010000006b483045022100e7697d7668dc371a9a9c0ace6384309f28a00d54a65e524ebdd33c07e4b2171c02204fc6761e928f119f721d37458d52e9e2b7f434771d483dc49bfc6df036a67b190121028c204740b1874cff2ab94950fb8287652c0c6d102f854fa8386b251ff6917898ffffffff44679497bc9570738c209e0911faae45668ef35a5b07d00eb80aaac5507dab7d000000006b483045022047a78e6507f746db397a259db4648c465053e05a39dd83595429ae36cecbb289022100b3dd347f0900bb24d95395964b5f870919138a184e238ed1452b5b2f728585f60121033d58b1f2824057b9b6739fd0744b6ef94b3e4f6ef106e8efb0b47250aae4b6b5ffffffffcb1bb55b43102adf6173580fd04ab4263a39b1f465e4408daed3555475ebf7e9000000006a47304402206c5b5a0720a3858f9102133ec736146a732449a23fbfb1d896fb57d3980c4d0302206aea8265c21dfaefe39b03c5951575e62207307f21bf3d1096076f383c3afca50121020606a8eb10a6cef0dfcd5fd887fd1a80881d152b335f31553ad20acaa9aa3484ffffffffbf36463bebea22ec97939ee91301649542de9ec8b352ab69c2366495caff3320000000006c493046022100c13b3394563b914a67a0e1d7f9480ea2894804e0fc45e70da5bc85285f67fe3e022100a3424e58312cc7be2794c8090eaafa5357e0435f9d32cb231dccbfce63b61e0001210292f0fb63ba930548f836b21cc148b6a73a10c993f3080138ac2603dbd349a096ffffffff72c18009b252564a1736869c9c9ed4421f195fe148e85d7e45d72b589aef42b6000000006b483045022004a96f6ab54a09dfd8d9c21519035b254c1273031defd38600e66369512fb95c022100ef2fa383202fb336c388b48cba17e21e01e06603464554fbdb34d02eb44afffc01210376133a5d666d8d32e2b925934561650335b2bf47d8b23b31d30c125cc4c14707ffffffff88c8a6d28d0334b2151328d187b6bc597d36aa6a59f1c65a411f0ccd85337172000000006a473044022060ba56f46ce98c23acbb92249f95b9138379d049a0fe78b5ea32028ed780fb2702200fca919394b74ea3379fc42bd58bcaa1323e6edba3cb42b04ce8a5335fde39530121028bb260f63c330e98068e4d8b2df88cbd4a789fc8a177e7125125b0657f8c3b6affffffff26fe02708375ab826b52d20f90fc6251bce87580117d9cdb009c4cc07a7b7a57000000006b483045022100ebac9223e9d003bfd7b23fa6a4a7cc78246a96fabe4897d9b7fff75c6dff2adf02204d85bb02ae24685cb00e186fc6c5784a1ac94b2956909304ab3466532fa6e79a0121028a4577ca607dd40a3ff0742a33539f1455f9bb4bc7846683a4a338644a9bd725ffffffff7536c71201fcc0d43114d95ccc76d806b0627121fac0e341241b7cd6fe550776000000006a47304402207d5022f0e7b24700b5abe9807abbf98cec192572192f4751c71ac79f5a5c40f7022027331bc374181bea0d793be6e08d91a67fba545692fb1fba7ce955146dbadbc10121039eb833f29897c9260ca496bde8214ba4fb118ccb8874d418c8df5d436fd1ced7ffffffff028f4d0f00000000001976a914b9c5afba618caa806e3c847d5edca95c30c9d13488ac60d102c5060000001976a914716311bdfb6b4cc9a3046a0dc250ac8f1cf853f988ac00000000",
    "blockhash": "00000000000000e102f6b3ea8316d007595c8b2a7a2a0616ab75f3011da389df",
    "confirmations": 413470,
    "time": 1361414971,
    "blocktime": 1361414971
  },
  "error": null,
  "id": "curltext"
}