{
  "result": {
    "txid": "4f9316d693fbdb36d3d9f48381d7cd4280a4edd00ffb6b8c87130fa23592e74e",
    "hash": "4f9316d693fbdb36d3d9f48381d7cd4280a4edd00ffb6b8c87130fa23592e74e",
    "version": 1,
    "size": 785,
    "vsize": 785,
    "weight": 3140,
    "locktime": 0,
    "vin": [
      {
        "txid": "fa5b66e2918764fc64dd5d17878d6f35de6422fe73f44577a0c532327fdd886d",
        "vout": 0,
        "scriptSig": {
          "asm": "30460221008e22d4e912dc406ad87313a6c13ce66d69e157d9ef189e3acfdfc93706d7992c022100a297182f6a05f6a1055f862d87aedd705852c0cca6fcb7e4819657aa855cecdf[ALL] 03f12505535f69a19ad84879b4cd99a6bc07f1b50d7137c7c7804a63f84d7626c8",
          "hex": "4930460221008e22d4e912dc406ad87313a6c13ce66d69e157d9ef189e3acfdfc93706d7992c022100a297182f6a05f6a1055f862d87aedd705852c0cca6fcb7e4819657aa855cecdf012103f12505535f69a19ad84879b4cd99a6bc07f1b50d7137c7c7804a63f84d7626c8"
        },
        "sequence": 4294967295
      },
      {
        "txid": "8a336a6f2da0d84f3060fcc6c5c478cb71cd41e8290f317ae494f80c06259ece",
        "vout": 1,
        "scriptSig": {
          "asm": "304502203141be74a50559b9744c3546873a16b8b4f80131f7e30d6d5892c2ccadcfa791022100da27918015ab1cba3edc4176f35d3bf5b54920b1cc15a34b02edc50af44cffeb[ALL] 032e4599b4fe0193a5cdb2bdc63b48f9d752a3ca28a1f3551f5fffddb8f3d4a8ce",
          "hex": "48304502203141be74a50559b9744c3546873a16b8b4f80131f7e30d6d5892c2ccadcfa791022100da27918015ab1cba3edc4176f35d3bf5b54920b1cc15a34b02edc50af44cffeb0121032e4599b4fe0193a5cdb2bdc63b48f9d752a3ca28a1f3551f5fffddb8f3d4a8ce"
        },
        "sequence": 4294967295
      },
      {
        "txid": "81e59015d5ca06cc69fd31e447cdfc50f4b27896de23d4904a47c9cecb734d3e",
        "vout": 0,
        "scriptSig": {
          "asm": "304402200207c93bd46f120329e9d6c97062a125ce4ee2ed77ac4e086f2ece1ea3f83674022003841ffe56b6f091b1406b77e3a00bad353b91dff0a06d54a180c8a676125519[ALL] 0277d3778ee00d54be6e5584bcbc9e3c33e8e2645b4f7fcabd0892acde5676e385",
          "hex": "47304402200207c93bd46f120329e9d6c97062a125ce4ee2ed77ac4e086f2ece1ea3f83674022003841ffe56b6f091b1406b77e3a00bad353b91dff0a06d54a180c8a67612551901210277d3778ee00d54be6e5584bcbc9e3c33e8e2645b4f7fcabd0892acde5676e385"
        },
        "sequence": 4294967295
      },
      {
        "txid": "01d28572de4f7e98d8fb8c7bb5dd0ab7beafbd8905ee00f4d31710b43170ba99",
        "vout": 0,
        "scriptSig": {
          "asm": "questo e' l[output",
          "hex": "4930460221008e0339f8cd7979cc78bdbded09862942ac27c4e6615ba1a8986c8a12e10dc3d2022100b22fcf3550ec825ccefbdaedc86f43d23421699fcf51ec9248de72865ed33cda0121039eb833f29897c9260ca496bde8214ba4fb118ccb8874d418c8df5d436fd1ced7"
        },
        "sequence": 4294967295
      },
      {
        "txid": "75f9d2cfb9606e6095fb74577f63b1b15d4c031dc177ce8141c354aeed30b21b",
        "vout": 2,
        "scriptSig": {
          "asm": "304502210099d31a440afc93e915ab0e9ef08381f96025461653422a1adb11fe61b9c98cef02203ba973bd8a38cd65a1b1f20c5cd167ca6b5175ac85cee1c4fe5fc6edc059d61d[ALL] 03ada7070be791174eb1a2aa2972bf7b442248c6b81ad95e5434d734ff04145c2b",
          "hex": "48304502210099d31a440afc93e915ab0e9ef08381f96025461653422a1adb11fe61b9c98cef02203ba973bd8a38cd65a1b1f20c5cd167ca6b5175ac85cee1c4fe5fc6edc059d61d012103ada7070be791174eb1a2aa2972bf7b442248c6b81ad95e5434d734ff04145c2b"
        },
        "sequence": 4294967295
      }
    ],
    "vout": [
      {
        "value": 111.00000000,
        "n": 0,
        "scriptPubKey": {
          "asm": "OP_DUP OP_HASH160 f19a2495f74c8c00cc4092b5e705d6fbe5a44748 OP_EQUALVERIFY OP_CHECKSIG",
          "hex": "76a914f19a2495f74c8c00cc4092b5e705d6fbe5a4474888ac",
          "reqSigs": 1,
          "type": "pubkeyhash",
          "addresses": [
            "1P2UWGaFtk31WKWMDtPPWa384TMhML4CMc"
          ]
        }
      }
    ],
    "hex": "01000000056d88dd7f3232c5a07745f473fe2264de356f8d87175ddd64fc648791e2665bfa000000006c4930460221008e22d4e912dc406ad87313a6c13ce66d69e157d9ef189e3acfdfc93706d7992c022100a297182f6a05f6a1055f862d87aedd705852c0cca6fcb7e4819657aa855cecdf012103f12505535f69a19ad84879b4cd99a6bc07f1b50d7137c7c7804a63f84d7626c8ffffffffce9e25060cf894e47a310f29e841cd71cb78c4c5c6fc60304fd8a02d6f6a338a010000006b48304502203141be74a50559b9744c3546873a16b8b4f80131f7e30d6d5892c2ccadcfa791022100da27918015ab1cba3edc4176f35d3bf5b54920b1cc15a34b02edc50af44cffeb0121032e4599b4fe0193a5cdb2bdc63b48f9d752a3ca28a1f3551f5fffddb8f3d4a8ceffffffff3e4d73cbcec9474a90d423de9678b2f450fccd47e431fd69cc06cad51590e581000000006a47304402200207c93bd46f120329e9d6c97062a125ce4ee2ed77ac4e086f2ece1ea3f83674022003841ffe56b6f091b1406b77e3a00bad353b91dff0a06d54a180c8a67612551901210277d3778ee00d54be6e5584bcbc9e3c33e8e2645b4f7fcabd0892acde5676e385ffffffff99ba7031b41017d3f400ee0589bdafbeb70addb57b8cfbd8987e4fde7285d201000000006c4930460221008e0339f8cd7979cc78bdbded09862942ac27c4e6615ba1a8986c8a12e10dc3d2022100b22fcf3550ec825ccefbdaedc86f43d23421699fcf51ec9248de72865ed33cda0121039eb833f29897c9260ca496bde8214ba4fb118ccb8874d418c8df5d436fd1ced7ffffffff1bb230edae54c34181ce77c11d034c5db1b1637f5774fb95606e60b9cfd2f975020000006b48304502210099d31a440afc93e915ab0e9ef08381f96025461653422a1adb11fe61b9c98cef02203ba973bd8a38cd65a1b1f20c5cd167ca6b5175ac85cee1c4fe5fc6edc059d61d012103ada7070be791174eb1a2aa2972bf7b442248c6b81ad95e5434d734ff04145c2bffffffff01008f9c95020000001976a914f19a2495f74c8c00cc4092b5e705d6fbe5a4474888ac00000000",
    "blockhash": "00000000000000a3433c4a2ab4136c22d3c9c1defedb51c0c1ff7393dc182533",
    "confirmations": 388961,
    "time": 1373936964,
    "blocktime": 1373936964
  },
  "error": null,
  "id": "curltext"
}