{
  "result": {
    "txid": "41692561e888c1000afe1aaaec1d826e27f6c05fa9e6220cbd61257bf6d7e7c3",
    "hash": "41692561e888c1000afe1aaaec1d826e27f6c05fa9e6220cbd61257bf6d7e7c3",
    "version": 1,
    "size": 583,
    "vsize": 583,
    "weight": 2332,
    "locktime": 0,
    "vin": [
      {
        "txid": "062f7392ee0366f73fb4e7445dad15ecb48587afc43880a7f255965bb12b0add",
        "vout": 1,
        "scriptSig": {
          "asm": "304502203f1856e0d6cd506e50d1b44721423c606c962c0f5b568ca6745341f4a4ed6e26022100f996ec02a56afe04234f76f261c44d4ea4436eeb289e0503003ad22466f19e9c[ALL] 047fdb25e7bb95fe1f285e5d35bbd429951c127a30b54b0dfee5e337c9b9221a28abc28566ed05e8a9276c1529dbc8aefd0bf72ceaf0668c7473e52a2a238a58b5",
          "hex": "48304502203f1856e0d6cd506e50d1b44721423c606c962c0f5b568ca6745341f4a4ed6e26022100f996ec02a56afe04234f76f261c44d4ea4436eeb289e0503003ad22466f19e9c0141047fdb25e7bb95fe1f285e5d35bbd429951c127a30b54b0dfee5e337c9b9221a28abc28566ed05e8a9276c1529dbc8aefd0bf72ceaf0668c7473e52a2a238a58b5"
        },
        "sequence": 4294967295
      },
      {
        "txid": "6e83157708022c622585190b280eb95e35ce1fe627b925edc722cb92e0e6f84f",
        "vout": 0,
        "scriptSig": {
          "asm": "3045022100cc82724fc705a7c6d85515ea7bd18a1222ac1b1de021b4776ee0788c6d71a2a502207b01b2f5e67716e1bac754ac52a31dfa052bd371fafda081505d3a8a904dda20[ALL] 04f235a0a695af1a812308616de6d661245b6f85fe8c289d68d3e82a723c46d700e9707e664a92c1e595ca106b7222c0e060e8a0cd86fca9386d23ce4d51b5f53d",
          "hex": "483045022100cc82724fc705a7c6d85515ea7bd18a1222ac1b1de021b4776ee0788c6d71a2a502207b01b2f5e67716e1bac754ac52a31dfa052bd371fafda081505d3a8a904dda20014104f235a0a695af1a812308616de6d661245b6f85fe8c289d68d3e82a723c46d700e9707e664a92c1e595ca106b7222c0e060e8a0cd86fca9386d23ce4d51b5f53d"
        },
        "sequence": 4294967295
      },
      {
        "txid": "73394d30f5bde21bc99498defe1fa05a22a27530820eb148d3e4bba5b9c40d62",
        "vout": 0,
        "scriptSig": {
          "asm": "304402206508dfa56de0e225c867bcfc77e6d2418862f9ca5ca76c712beccf7aeec781b80220302d5845cca28cd10c6ce8379869d8bf6375b11ccb0ea2222d641c2d91055dc8[ALL] 04e3f86dc70d15ac53b7539b23edb18e02b4dd9e108b8f509c62be4aba57684cdd3d1668446b52a2f647843522cdae50e024cd584f5c3b7b4b15daef6303776ea9",
          "hex": "47304402206508dfa56de0e225c867bcfc77e6d2418862f9ca5ca76c712beccf7aeec781b80220302d5845cca28cd10c6ce8379869d8bf6375b11ccb0ea2222d641c2d91055dc8014104e3f86dc70d15ac53b7539b23edb18e02b4dd9e108b8f509c62be4aba57684cdd3d1668446b52a2f647843522cdae50e024cd584f5c3b7b4b15daef6303776ea9"
        },
        "sequence": 4294967295
      }
    ],
    "vout": [
      {
        "value": 500.00000000,
        "n": 0,
        "scriptPubKey": {
          "asm": "OP_DUP OP_HASH160 c13e4153743469d5a214e8ec70bf7186d122ade8 OP_EQUALVERIFY OP_CHECKSIG",
          "hex": "76a914c13e4153743469d5a214e8ec70bf7186d122ade888ac",
          "reqSigs": 1,
          "type": "pubkeyhash",
          "addresses": [
            "1JcmzbAMBkPWYUeCdG9YSGRBpouSNyaczq"
          ]
        }
      }
    ],
    "hex": "0100000003dd0a2bb15b9655f2a78038c4af8785b4ec15ad5d44e7b43ff76603ee92732f06010000008b48304502203f1856e0d6cd506e50d1b44721423c606c962c0f5b568ca6745341f4a4ed6e26022100f996ec02a56afe04234f76f261c44d4ea4436eeb289e0503003ad22466f19e9c0141047fdb25e7bb95fe1f285e5d35bbd429951c127a30b54b0dfee5e337c9b9221a28abc28566ed05e8a9276c1529dbc8aefd0bf72ceaf0668c7473e52a2a238a58b5ffffffff4ff8e6e092cb22c7ed25b927e61fce355eb90e280b198525622c02087715836e000000008b483045022100cc82724fc705a7c6d85515ea7bd18a1222ac1b1de021b4776ee0788c6d71a2a502207b01b2f5e67716e1bac754ac52a31dfa052bd371fafda081505d3a8a904dda20014104f235a0a695af1a812308616de6d661245b6f85fe8c289d68d3e82a723c46d700e9707e664a92c1e595ca106b7222c0e060e8a0cd86fca9386d23ce4d51b5f53dffffffff620dc4b9a5bbe4d348b10e823075a2225aa01ffede9894c91be2bdf5304d3973000000008a47304402206508dfa56de0e225c867bcfc77e6d2418862f9ca5ca76c712beccf7aeec781b80220302d5845cca28cd10c6ce8379869d8bf6375b11ccb0ea2222d641c2d91055dc8014104e3f86dc70d15ac53b7539b23edb18e02b4dd9e108b8f509c62be4aba57684cdd3d1668446b52a2f647843522cdae50e024cd584f5c3b7b4b15daef6303776ea9ffffffff0100743ba40b0000001976a914c13e4153743469d5a214e8ec70bf7186d122ade888ac00000000",
    "blockhash": "00000000000046c4d228fc6cb844dd89cc010f91f97bc7381584e622d6e245cb",
    "confirmations": 514836,
    "time": 1304684716,
    "blocktime": 1304684716
  },
  "error": null,
  "id": "curltext"
}