{
  "result": {
    "txid": "83ceee593edcddc178311ffa5f3e85bf08e7ae7baa15f44c366ea876cad756fb",
    "hash": "83ceee593edcddc178311ffa5f3e85bf08e7ae7baa15f44c366ea876cad756fb",
    "version": 1,
    "size": 259,
    "vsize": 259,
    "weight": 1036,
    "locktime": 0,
    "vin": [
      {
        "txid": "87e60192371b065e03a9df9f0b55bb7b1d1c92e8053ca717ff9c121bb4aef535",
        "vout": 0,
        "scriptSig": {
          "asm": "3046022100f81ebbb70aae69f66eceb682fd7865f91c5e758fc60b2ed8a8e27aa39a954f9f022100fc11d228f01e222e9333a69711f921eab5d9fab769e1a11cc75cd47f5fc8ccfb[ALL] 04b3a5c69c453d32396ae930dc125e3b36cdedd91502974ae98b75bb7bed14ffc64604c8cba509c4b82a4e7f34e0e2a39628b6b528a8cfe97f659a65f3c3da57cf",
          "hex": "493046022100f81ebbb70aae69f66eceb682fd7865f91c5e758fc60b2ed8a8e27aa39a954f9f022100fc11d228f01e222e9333a69711f921eab5d9fab769e1a11cc75cd47f5fc8ccfb014104b3a5c69c453d32396ae930dc125e3b36cdedd91502974ae98b75bb7bed14ffc64604c8cba509c4b82a4e7f34e0e2a39628b6b528a8cfe97f659a65f3c3da57cf"
        },
        "sequence": 4294967295
      }
    ],
    "vout": [
      {
        "value": 48.96000000,
        "n": 0,
        "scriptPubKey": {
          "asm": "OP_DUP OP_HASH160 f02d1acc6cddf45f0cacf4edd58ffa096198a7a6 OP_EQUALVERIFY OP_CHECKSIG",
          "hex": "76a914f02d1acc6cddf45f0cacf4edd58ffa096198a7a688ac",
          "reqSigs": 1,
          "type": "pubkeyhash",
          "addresses": [
            "1NtwCy7nBFW5U6btTFpaGkbugTPhf5ydoN"
          ]
        }
      },
      {
        "value": 0.43000000,
        "n": 1,
        "scriptPubKey": {
          "asm": "OP_DUP OP_HASH160 7f8f077d74a6a6216d11b1ef845ebb30fecda306 OP_EQUALVERIFY OP_CHECKSIG",
          "hex": "76a9147f8f077d74a6a6216d11b1ef845ebb30fecda30688ac",
          "reqSigs": 1,
          "type": "pubkeyhash",
          "addresses": [
            "1CdUAD9smdBjxiM64B2jtA4TrbtMJzXsTD"
          ]
        }
      }
    ],
    "hex": "010000000135f5aeb41b129cff17a73c05e8921c1d7bbb550b9fdfa9035e061b379201e687000000008c493046022100f81ebbb70aae69f66eceb682fd7865f91c5e758fc60b2ed8a8e27aa39a954f9f022100fc11d228f01e222e9333a69711f921eab5d9fab769e1a11cc75cd47f5fc8ccfb014104b3a5c69c453d32396ae930dc125e3b36cdedd91502974ae98b75bb7bed14ffc64604c8cba509c4b82a4e7f34e0e2a39628b6b528a8cfe97f659a65f3c3da57cfffffffff020008d323010000001976a914f02d1acc6cddf45f0cacf4edd58ffa096198a7a688acc0209002000000001976a9147f8f077d74a6a6216d11b1ef845ebb30fecda30688ac00000000",
    "blockhash": "00000000000046c4d228fc6cb844dd89cc010f91f97bc7381584e622d6e245cb",
    "confirmations": 514838,
    "time": 1304684716,
    "blocktime": 1304684716
  },
  "error": null,
  "id": "curltext"
}