{
  "result": {
    "txid": "91fcb13ad1e0423210382e54bc05b82115a8b21bd28f9f9aaf12ae744cc7ff42",
    "hash": "91fcb13ad1e0423210382e54bc05b82115a8b21bd28f9f9aaf12ae744cc7ff42",
    "version": 1,
    "size": 796,
    "vsize": 796,
    "weight": 3184,
    "locktime": 0,
    "vin": [
      {
        "txid": "5128e169b43de8ff7f34362cd4eba37a9568a6691036fd5a8b383e06ad20ac4f",
        "vout": 0,
        "scriptSig": {
          "asm": "3046022100e3456ef4cd482513c76f944009b8eec338c7d301b8b4b7dab6b29cbf330499f2022100fdf05867868008c788cbe8ad57dc0fca9a7a1410d562036fa03e9e220eb0bf5d[ALL] 0409b2a997c8f0c4d0298c6463ca18f4fdd202c3309789e5d09133be9eb0c04abefa57ef27f0c4ac9d4b23a528495a578ed65217a992df1337064dba5c898ee45e",
          "hex": "493046022100e3456ef4cd482513c76f944009b8eec338c7d301b8b4b7dab6b29cbf330499f2022100fdf05867868008c788cbe8ad57dc0fca9a7a1410d562036fa03e9e220eb0bf5d01410409b2a997c8f0c4d0298c6463ca18f4fdd202c3309789e5d09133be9eb0c04abefa57ef27f0c4ac9d4b23a528495a578ed65217a992df1337064dba5c898ee45e"
        },
        "sequence": 4294967295
      },
      {
        "txid": "5128e169b43de8ff7f34362cd4eba37a9568a6691036fd5a8b383e06ad20ac4f",
        "vout": 1,
        "scriptSig": {
          "asm": "304402200f03dea4cae520dbd12bc0943b9ca00d45dd8c23fe31b9e06ffb856115aef3d602203c561617baa826b7d7cb9aab563ba54e4d400a804944e43905e2f39a19faa44c[ALL] 04b54ab882520c40fcd041a6f3537acad192a542062a368eda3e0068b8e067037cb09102c993e8df59df0caf889da1b02dc3942b0289eef0eaa7d92534f01a837a",
          "hex": "47304402200f03dea4cae520dbd12bc0943b9ca00d45dd8c23fe31b9e06ffb856115aef3d602203c561617baa826b7d7cb9aab563ba54e4d400a804944e43905e2f39a19faa44c014104b54ab882520c40fcd041a6f3537acad192a542062a368eda3e0068b8e067037cb09102c993e8df59df0caf889da1b02dc3942b0289eef0eaa7d92534f01a837a"
        },
        "sequence": 4294967295
      },
      {
        "txid": "0aadae2ecd7eac11755a1ac4a8c6f0c019f80faefbc8f4bbfc0c1064db28cbc5",
        "vout": 0,
        "scriptSig": {
          "asm": "304402203356bb4da9431068a6d54eb8105719935285bd7f4785e6fe3dc5b430e9f88b4902204207d1cd220d02de2c68942c86f8647c89eab72b8a0ea038b8d258d92866b787[ALL] 04451a7e40865cec683f1adaa08e8edc48d2ed5d086c8fa2fba9ccfe54d1b2171e6c49599f9f86c75339b8b13004636c731d17fce1e0c5524564693505828d6abe",
          "hex": "47304402203356bb4da9431068a6d54eb8105719935285bd7f4785e6fe3dc5b430e9f88b4902204207d1cd220d02de2c68942c86f8647c89eab72b8a0ea038b8d258d92866b787014104451a7e40865cec683f1adaa08e8edc48d2ed5d086c8fa2fba9ccfe54d1b2171e6c49599f9f86c75339b8b13004636c731d17fce1e0c5524564693505828d6abe"
        },
        "sequence": 4294967295
      },
      {
        "txid": "0aadae2ecd7eac11755a1ac4a8c6f0c019f80faefbc8f4bbfc0c1064db28cbc5",
        "vout": 1,
        "scriptSig": {
          "asm": "304402203af2d88f38e7a2ece2a3b84547ec14efc2f9c421c4b7747fb4167cceea8acbb60220484afe1b8acac07af7334e2b34c6bed07b8f9e64561a25a6d9170bd548854a1d[ALL] 04caf8deb909c9d858f8fab9bf07a7de5b2d80126b7e97fa9eacd0a6fcbce0abbcef0f0ee7238d43e4bbf95977b8e88d0651c962a657d504a99af4a42bb825c5a1",
          "hex": "47304402203af2d88f38e7a2ece2a3b84547ec14efc2f9c421c4b7747fb4167cceea8acbb60220484afe1b8acac07af7334e2b34c6bed07b8f9e64561a25a6d9170bd548854a1d014104caf8deb909c9d858f8fab9bf07a7de5b2d80126b7e97fa9eacd0a6fcbce0abbcef0f0ee7238d43e4bbf95977b8e88d0651c962a657d504a99af4a42bb825c5a1"
        },
        "sequence": 4294967295
      }
    ],
    "vout": [
      {
        "value": 19.58000000,
        "n": 0,
        "scriptPubKey": {
          "asm": "OP_DUP OP_HASH160 3beb96bdb12d281e54b1f9c8254d5c6995609c2d OP_EQUALVERIFY OP_CHECKSIG",
          "hex": "76a9143beb96bdb12d281e54b1f9c8254d5c6995609c2d88ac",
          "reqSigs": 1,
          "type": "pubkeyhash",
          "addresses": [
            "16Tq6KPR4XrDZGs2YJmCtRZCAyiFqTsjyy"
          ]
        }
      },
      {
        "value": 80.42000000,
        "n": 1,
        "scriptPubKey": {
          "asm": "OP_DUP OP_HASH160 688cd6b4cea4571cb7469ee53650efe23a838ea7 OP_EQUALVERIFY OP_CHECKSIG",
          "hex": "76a914688cd6b4cea4571cb7469ee53650efe23a838ea788ac",
          "reqSigs": 1,
          "type": "pubkeyhash",
          "addresses": [
            "1AXozbV3XtJFuigm1JAScDfqvy9bF1foW6"
          ]
        }
      }
    ],
    "hex": "01000000044fac20ad063e388b5afd361069a668957aa3ebd42c36347fffe83db469e12851000000008c493046022100e3456ef4cd482513c76f944009b8eec338c7d301b8b4b7dab6b29cbf330499f2022100fdf05867868008c788cbe8ad57dc0fca9a7a1410d562036fa03e9e220eb0bf5d01410409b2a997c8f0c4d0298c6463ca18f4fdd202c3309789e5d09133be9eb0c04abefa57ef27f0c4ac9d4b23a528495a578ed65217a992df1337064dba5c898ee45effffffff4fac20ad063e388b5afd361069a668957aa3ebd42c36347fffe83db469e12851010000008a47304402200f03dea4cae520dbd12bc0943b9ca00d45dd8c23fe31b9e06ffb856115aef3d602203c561617baa826b7d7cb9aab563ba54e4d400a804944e43905e2f39a19faa44c014104b54ab882520c40fcd041a6f3537acad192a542062a368eda3e0068b8e067037cb09102c993e8df59df0caf889da1b02dc3942b0289eef0eaa7d92534f01a837affffffffc5cb28db64100cfcbbf4c8fbae0ff819c0f0c6a8c41a5a7511ac7ecd2eaead0a000000008a47304402203356bb4da9431068a6d54eb8105719935285bd7f4785e6fe3dc5b430e9f88b4902204207d1cd220d02de2c68942c86f8647c89eab72b8a0ea038b8d258d92866b787014104451a7e40865cec683f1adaa08e8edc48d2ed5d086c8fa2fba9ccfe54d1b2171e6c49599f9f86c75339b8b13004636c731d17fce1e0c5524564693505828d6abeffffffffc5cb28db64100cfcbbf4c8fbae0ff819c0f0c6a8c41a5a7511ac7ecd2eaead0a010000008a47304402203af2d88f38e7a2ece2a3b84547ec14efc2f9c421c4b7747fb4167cceea8acbb60220484afe1b8acac07af7334e2b34c6bed07b8f9e64561a25a6d9170bd548854a1d014104caf8deb909c9d858f8fab9bf07a7de5b2d80126b7e97fa9eacd0a6fcbce0abbcef0f0ee7238d43e4bbf95977b8e88d0651c962a657d504a99af4a42bb825c5a1ffffffff0280b5b474000000001976a9143beb96bdb12d281e54b1f9c8254d5c6995609c2d88ac802e57df010000001976a914688cd6b4cea4571cb7469ee53650efe23a838ea788ac00000000",
    "blockhash": "00000000000046c4d228fc6cb844dd89cc010f91f97bc7381584e622d6e245cb",
    "confirmations": 514838,
    "time": 1304684716,
    "blocktime": 1304684716
  },
  "error": null,
  "id": "curltext"
}