{
  "result": {
    "txid": "09b7869651f7f0f5564e9ebb7d7a068305a43b48139c1b8860930a72ef659d6e",
    "hash": "09b7869651f7f0f5564e9ebb7d7a068305a43b48139c1b8860930a72ef659d6e",
    "version": 1,
    "size": 258,
    "vsize": 258,
    "weight": 1032,
    "locktime": 0,
    "vin": [
      {
        "txid": "7482e1123b7b06b811b0c4b5345179bf8f3dcc2d66f76f66a0892adb49d985f8",
        "vout": 1,
        "scriptSig": {
          "asm": "3045022100f19c5f5a58ac22534338ee1bfa5d5e5c0d165c26ff43e8d9fd57bcabc77bf3f502204c1df0af1d67f87867bdeb472749dc48ad2b506d0a6fa0623e20ffb27df2be0c[ALL] 04a033d4811f8f7bd8b8e8bd88dbd79f3d280477771bdc727d80eed020fb3ed049b0acd55817265c9bc4f49777235374859fc37a955033d4ef3116f8f4ee7eeee1",
          "hex": "483045022100f19c5f5a58ac22534338ee1bfa5d5e5c0d165c26ff43e8d9fd57bcabc77bf3f502204c1df0af1d67f87867bdeb472749dc48ad2b506d0a6fa0623e20ffb27df2be0c014104a033d4811f8f7bd8b8e8bd88dbd79f3d280477771bdc727d80eed020fb3ed049b0acd55817265c9bc4f49777235374859fc37a955033d4ef3116f8f4ee7eeee1"
        },
        "sequence": 4294967295
      }
    ],
    "vout": [
      {
        "value": 0.09000000,
        "n": 0,
        "scriptPubKey": {
          "asm": "OP_DUP OP_HASH160 c315f9b733a756df98e2b39228bcd04867509e8f OP_EQUALVERIFY OP_CHECKSIG",
          "hex": "76a914c315f9b733a756df98e2b39228bcd04867509e8f88ac",
          "reqSigs": 1,
          "type": "pubkeyhash",
          "addresses": [
            "1JnX6Hi7U2NoNPVCqnN9aVa3SxA524Zv7Z"
          ]
        }
      },
      {
        "value": 38.73000000,
        "n": 1,
        "scriptPubKey": {
          "asm": "OP_DUP OP_HASH160 239b2f9de6ca68fcfffeae1d329a735513a44714 OP_EQUALVERIFY OP_CHECKSIG",
          "hex": "76a914239b2f9de6ca68fcfffeae1d329a735513a4471488ac",
          "reqSigs": 1,
          "type": "pubkeyhash",
          "addresses": [
            "14FGZE9FxfHjVfifehdHS1MLhf52uhC7Mh"
          ]
        }
      }
    ],
    "hex": "0100000001f885d949db2a89a0666ff7662dcc3d8fbf795134b5c4b011b8067b3b12e18274010000008b483045022100f19c5f5a58ac22534338ee1bfa5d5e5c0d165c26ff43e8d9fd57bcabc77bf3f502204c1df0af1d67f87867bdeb472749dc48ad2b506d0a6fa0623e20ffb27df2be0c014104a033d4811f8f7bd8b8e8bd88dbd79f3d280477771bdc727d80eed020fb3ed049b0acd55817265c9bc4f49777235374859fc37a955033d4ef3116f8f4ee7eeee1ffffffff0240548900000000001976a914c315f9b733a756df98e2b39228bcd04867509e8f88ac404ad9e6000000001976a914239b2f9de6ca68fcfffeae1d329a735513a4471488ac00000000",
    "blockhash": "00000000000046c4d228fc6cb844dd89cc010f91f97bc7381584e622d6e245cb",
    "confirmations": 514837,
    "time": 1304684716,
    "blocktime": 1304684716
  },
  "error": null,
  "id": "curltext"
}