{
  "result": {
    "txid": "86b7c48e88da3d22d70cfca409a5ce9c6e05713bad53148d5704a7aba9fc3371",
    "hash": "86b7c48e88da3d22d70cfca409a5ce9c6e05713bad53148d5704a7aba9fc3371",
    "version": 1,
    "size": 438,
    "vsize": 438,
    "weight": 1752,
    "locktime": 0,
    "vin": [
      {
        "txid": "4ca6b7e9217fdb373b22231b94a3613c08e075b0db3f693c17d66c07a11ba4d4",
        "vout": 0,
        "scriptSig": {
          "asm": "304402205e45e8e3014358c474073b9bef616351db4ea8fb603b38ef6bbe999d1880e6b302204f019af789e18e1cae355ba224d80bd8d455f45b884dd84edd0c402417347eec[ALL] 045f2d9225738b2e8872ab24e40e006e1d5790ebcee5b1f29b61d13941f10833a36b7c8f364ff37e251981ecfca2edcedde48be255a9b08d933ebcb4246e430d5b",
          "hex": "47304402205e45e8e3014358c474073b9bef616351db4ea8fb603b38ef6bbe999d1880e6b302204f019af789e18e1cae355ba224d80bd8d455f45b884dd84edd0c402417347eec0141045f2d9225738b2e8872ab24e40e006e1d5790ebcee5b1f29b61d13941f10833a36b7c8f364ff37e251981ecfca2edcedde48be255a9b08d933ebcb4246e430d5b"
        },
        "sequence": 4294967295
      },
      {
        "txid": "4ca6b7e9217fdb373b22231b94a3613c08e075b0db3f693c17d66c07a11ba4d4",
        "vout": 1,
        "scriptSig": {
          "asm": "3046022100816250be32b2f815c571a214568dcedf161f8d1824c8afb7819fb153be764dd9022100f7790ad1395907bde4d71316eef30a3b9bbcff0584e399db8957b7eba561d174[ALL] 0451b38083f6b12452a524a23711409008373b521ff0e6d9b61922c733caf4305d9ad01452d5ef958016b824b8e9c3cd47216ada1cc95ac30da81f11ffe63207f4",
          "hex": "493046022100816250be32b2f815c571a214568dcedf161f8d1824c8afb7819fb153be764dd9022100f7790ad1395907bde4d71316eef30a3b9bbcff0584e399db8957b7eba561d17401410451b38083f6b12452a524a23711409008373b521ff0e6d9b61922c733caf4305d9ad01452d5ef958016b824b8e9c3cd47216ada1cc95ac30da81f11ffe63207f4"
        },
        "sequence": 4294967295
      }
    ],
    "vout": [
      {
        "value": 161.80000000,
        "n": 0,
        "scriptPubKey": {
          "asm": "OP_DUP OP_HASH160 31cec93e589331bac82529bc483f6b5de95ac6b8 OP_EQUALVERIFY OP_CHECKSIG",
          "hex": "76a91431cec93e589331bac82529bc483f6b5de95ac6b888ac",
          "reqSigs": 1,
          "type": "pubkeyhash",
          "addresses": [
            "15YMq9ihsy4qFY8HdmV6FFXm5iTdS7zbzU"
          ]
        }
      },
      {
        "value": 67.14000000,
        "n": 1,
        "scriptPubKey": {
          "asm": "OP_DUP OP_HASH160 4144450efdd0d42cc42de6281c0a967a48930e7c OP_EQUALVERIFY OP_CHECKSIG",
          "hex": "76a9144144450efdd0d42cc42de6281c0a967a48930e7c88ac",
          "reqSigs": 1,
          "type": "pubkeyhash",
          "addresses": [
            "16x6hwEYa6FoACppTdrXCRbEJCX5b9dCtg"
          ]
        }
      }
    ],
    "hex": "0100000002d4a41ba1076cd6173c693fdbb075e0083c61a3941b23223b37db7f21e9b7a64c000000008a47304402205e45e8e3014358c474073b9bef616351db4ea8fb603b38ef6bbe999d1880e6b302204f019af789e18e1cae355ba224d80bd8d455f45b884dd84edd0c402417347eec0141045f2d9225738b2e8872ab24e40e006e1d5790ebcee5b1f29b61d13941f10833a36b7c8f364ff37e251981ecfca2edcedde48be255a9b08d933ebcb4246e430d5bffffffffd4a41ba1076cd6173c693fdbb075e0083c61a3941b23223b37db7f21e9b7a64c010000008c493046022100816250be32b2f815c571a214568dcedf161f8d1824c8afb7819fb153be764dd9022100f7790ad1395907bde4d71316eef30a3b9bbcff0584e399db8957b7eba561d17401410451b38083f6b12452a524a23711409008373b521ff0e6d9b61922c733caf4305d9ad01452d5ef958016b824b8e9c3cd47216ada1cc95ac30da81f11ffe63207f4ffffffff02003567c4030000001976a91431cec93e589331bac82529bc483f6b5de95ac6b888ac80822f90010000001976a9144144450efdd0d42cc42de6281c0a967a48930e7c88ac00000000",
    "blockhash": "00000000000046c4d228fc6cb844dd89cc010f91f97bc7381584e622d6e245cb",
    "confirmations": 514836,
    "time": 1304684716,
    "blocktime": 1304684716
  },
  "error": null,
  "id": "curltext"
}