{
  "result": {
    "txid": "c173d990134491767a751288f45194ad6fb6d0fc210ea75f23b46b6016afd722",
    "hash": "c173d990134491767a751288f45194ad6fb6d0fc210ea75f23b46b6016afd722",
    "version": 1,
    "size": 1125,
    "vsize": 1125,
    "weight": 4500,
    "locktime": 0,
    "vin": [
      {
        "txid": "b1fddeaaa9a0d9de79b3c87213641fdf76f9788f1ba252aaf793bedcc3b6a86b",
        "vout": 0,
        "scriptSig": {
          "asm": "304602210096ace8cb4c7c04a5094b600c2e0880cedaa16bbbdb129688cc8c1df0c07223f9022100c2ab3c2b7690b0445b208e8f44203488de530a7ce63ba8b0eb143b3b8cdf5f3b[ALL] 049eb37185dd1e8f2398e85fe2783629a9924f53ae47b813a90dca318b71d2d170598b4cd50fec68e114d4e7f5322927de1e4d009649d38194bae7bccec7eede95",
          "hex": "49304602210096ace8cb4c7c04a5094b600c2e0880cedaa16bbbdb129688cc8c1df0c07223f9022100c2ab3c2b7690b0445b208e8f44203488de530a7ce63ba8b0eb143b3b8cdf5f3b0141049eb37185dd1e8f2398e85fe2783629a9924f53ae47b813a90dca318b71d2d170598b4cd50fec68e114d4e7f5322927de1e4d009649d38194bae7bccec7eede95"
        },
        "sequence": 4294967295
      },
      {
        "txid": "14f478c6f677936e878b549299e2ae793934daf03ffd42d267b67a468a5c116e",
        "vout": 1,
        "scriptSig": {
          "asm": "30450220360f8327a2167b5a60abca78257d997150b06e9b078a028fa2aca129ce90c1a2022100a8cae299dc0a3ee933c8d00f56b8fdda07214c23f97ea678e8e7f07500006f66[ALL] 041235330fc5032f6b0134e28b0d73049e2ac87cee6ee90edd66a099e97e626b3a3fbdfdfa6a6ba097e1cb7255e3689f7d9b329b1685488b7d44676efc8f0d9bcc",
          "hex": "4830450220360f8327a2167b5a60abca78257d997150b06e9b078a028fa2aca129ce90c1a2022100a8cae299dc0a3ee933c8d00f56b8fdda07214c23f97ea678e8e7f07500006f660141041235330fc5032f6b0134e28b0d73049e2ac87cee6ee90edd66a099e97e626b3a3fbdfdfa6a6ba097e1cb7255e3689f7d9b329b1685488b7d44676efc8f0d9bcc"
        },
        "sequence": 4294967295
      },
      {
        "txid": "bbedfc6aaa3458e0ea1e9537fc9ab17f7c91e8201ada044fc7e7654a786e168e",
        "vout": 0,
        "scriptSig": {
          "asm": "3046022100eff692d9f7d411a4bb4b162cde4ffd78660c33c62d06408fe453869efaccfe370221008e7ee1725e357237872d445aca19dfe149d84ba78285f2bdc7fc8a11b903bd96[ALL] 04f83dfe29680f910d5884ac084f1c879cdb1d290e769f749287d3d6873a2a4dcd3cbdfa4180971cf355a8b41a4032c8f0a775a5515681200d001915849a8d33bf",
          "hex": "493046022100eff692d9f7d411a4bb4b162cde4ffd78660c33c62d06408fe453869efaccfe370221008e7ee1725e357237872d445aca19dfe149d84ba78285f2bdc7fc8a11b903bd96014104f83dfe29680f910d5884ac084f1c879cdb1d290e769f749287d3d6873a2a4dcd3cbdfa4180971cf355a8b41a4032c8f0a775a5515681200d001915849a8d33bf"
        },
        "sequence": 4294967295
      },
      {
        "txid": "0df62a72ee3b745e7125709f4f19ea4c0a9b703f5f13d635e966cd7ffd37c695",
        "vout": 0,
        "scriptSig": {
          "asm": "3045022055e308d1f99ff229a9c6e765adccbd7b238840722c12b88d69eb0a6b030d2b82022100b0528a271f780fdb16d9a8559e962d84c2c4e16dc7e532ec3dc9886a09c1a0e8[ALL] 044eefc0e59bdcd71f26caaf289c1a623dc46fee04637b73fd2471aa3ca9c8785f36477823702cef08d734d79877977de98d2876dcbbd337949a71270b9680ca91",
          "hex": "483045022055e308d1f99ff229a9c6e765adccbd7b238840722c12b88d69eb0a6b030d2b82022100b0528a271f780fdb16d9a8559e962d84c2c4e16dc7e532ec3dc9886a09c1a0e80141044eefc0e59bdcd71f26caaf289c1a623dc46fee04637b73fd2471aa3ca9c8785f36477823702cef08d734d79877977de98d2876dcbbd337949a71270b9680ca91"
        },
        "sequence": 4294967295
      },
      {
        "txid": "34cfb17dabda1ca1517ddd2a14593f562e6cfd58ff04c69f440a3871865b71de",
        "vout": 1,
        "scriptSig": {
          "asm": "3045022009cce40d286ec8b372087847aa9b63594f6682ee1cf3d27ffcee7ee061971a7e022100befd35a77f12c534df04793863cf2ad3c402609c299709029c1aa0a530024bd0[ALL] 041235330fc5032f6b0134e28b0d73049e2ac87cee6ee90edd66a099e97e626b3a3fbdfdfa6a6ba097e1cb7255e3689f7d9b329b1685488b7d44676efc8f0d9bcc",
          "hex": "483045022009cce40d286ec8b372087847aa9b63594f6682ee1cf3d27ffcee7ee061971a7e022100befd35a77f12c534df04793863cf2ad3c402609c299709029c1aa0a530024bd00141041235330fc5032f6b0134e28b0d73049e2ac87cee6ee90edd66a099e97e626b3a3fbdfdfa6a6ba097e1cb7255e3689f7d9b329b1685488b7d44676efc8f0d9bcc"
        },
        "sequence": 4294967295
      },
      {
        "txid": "5559b731fea7e547e8d88b657cc6f6337114a39af0b79c034dc2a7c20530c4f1",
        "vout": 0,
        "scriptSig": {
          "asm": "304402202b3a96a1667209bb3a642e492d5bf14d1f7f10b7f999a0753b7a53398941e71f02203f528ad570d3a6a672ae0c7308fe5c34b45b28a98aaea9727487f8bd692752e6[ALL] 0469a00661e4c451e920a593e627fe47ba0b3de3dd28b1c24178f1266e6eff113a042129edc34004da4231b46d6531f23fe0167388eefb9062595742a4f910d64b",
          "hex": "47304402202b3a96a1667209bb3a642e492d5bf14d1f7f10b7f999a0753b7a53398941e71f02203f528ad570d3a6a672ae0c7308fe5c34b45b28a98aaea9727487f8bd692752e601410469a00661e4c451e920a593e627fe47ba0b3de3dd28b1c24178f1266e6eff113a042129edc34004da4231b46d6531f23fe0167388eefb9062595742a4f910d64b"
        },
        "sequence": 4294967295
      }
    ],
    "vout": [
      {
        "value": 0.10000000,
        "n": 0,
        "scriptPubKey": {
          "asm": "OP_DUP OP_HASH160 fdfab11682a0ba5f5f548fdf2a4dec8d05e075d7 OP_EQUALVERIFY OP_CHECKSIG",
          "hex": "76a914fdfab11682a0ba5f5f548fdf2a4dec8d05e075d788ac",
          "reqSigs": 1,
          "type": "pubkeyhash",
          "addresses": [
            "1Q9vGuGk9sP5Kkk952SFeXHy8FFshNUDkt"
          ]
        }
      }
    ],
    "hex": "01000000066ba8b6c3dcbe93f7aa52a21b8f78f976df1f641372c8b379ded9a0a9aadefdb1000000008c49304602210096ace8cb4c7c04a5094b600c2e0880cedaa16bbbdb129688cc8c1df0c07223f9022100c2ab3c2b7690b0445b208e8f44203488de530a7ce63ba8b0eb143b3b8cdf5f3b0141049eb37185dd1e8f2398e85fe2783629a9924f53ae47b813a90dca318b71d2d170598b4cd50fec68e114d4e7f5322927de1e4d009649d38194bae7bccec7eede95ffffffff6e115c8a467ab667d242fd3ff0da343979aee29992548b876e9377f6c678f414010000008b4830450220360f8327a2167b5a60abca78257d997150b06e9b078a028fa2aca129ce90c1a2022100a8cae299dc0a3ee933c8d00f56b8fdda07214c23f97ea678e8e7f07500006f660141041235330fc5032f6b0134e28b0d73049e2ac87cee6ee90edd66a099e97e626b3a3fbdfdfa6a6ba097e1cb7255e3689f7d9b329b1685488b7d44676efc8f0d9bccffffffff8e166e784a65e7c74f04da1a20e8917c7fb19afc37951eeae05834aa6afcedbb000000008c493046022100eff692d9f7d411a4bb4b162cde4ffd78660c33c62d06408fe453869efaccfe370221008e7ee1725e357237872d445aca19dfe149d84ba78285f2bdc7fc8a11b903bd96014104f83dfe29680f910d5884ac084f1c879cdb1d290e769f749287d3d6873a2a4dcd3cbdfa4180971cf355a8b41a4032c8f0a775a5515681200d001915849a8d33bfffffffff95c637fd7fcd66e935d6135f3f709b0a4cea194f9f7025715e743bee722af60d000000008b483045022055e308d1f99ff229a9c6e765adccbd7b238840722c12b88d69eb0a6b030d2b82022100b0528a271f780fdb16d9a8559e962d84c2c4e16dc7e532ec3dc9886a09c1a0e80141044eefc0e59bdcd71f26caaf289c1a623dc46fee04637b73fd2471aa3ca9c8785f36477823702cef08d734d79877977de98d2876dcbbd337949a71270b9680ca91ffffffffde715b8671380a449fc604ff58fd6c2e563f59142add7d51a11cdaab7db1cf34010000008b483045022009cce40d286ec8b372087847aa9b63594f6682ee1cf3d27ffcee7ee061971a7e022100befd35a77f12c534df04793863cf2ad3c402609c299709029c1aa0a530024bd00141041235330fc5032f6b0134e28b0d73049e2ac87cee6ee90edd66a099e97e626b3a3fbdfdfa6a6ba097e1cb7255e3689f7d9b329b1685488b7d44676efc8f0d9bccfffffffff1c43005c2a7c24d039cb7f09aa3147133f6c67c658bd8e847e5a7fe31b75955000000008a47304402202b3a96a1667209bb3a642e492d5bf14d1f7f10b7f999a0753b7a53398941e71f02203f528ad570d3a6a672ae0c7308fe5c34b45b28a98aaea9727487f8bd692752e601410469a00661e4c451e920a593e627fe47ba0b3de3dd28b1c24178f1266e6eff113a042129edc34004da4231b46d6531f23fe0167388eefb9062595742a4f910d64bffffffff0180969800000000001976a914fdfab11682a0ba5f5f548fdf2a4dec8d05e075d788ac00000000",
    "blockhash": "00000000000046c4d228fc6cb844dd89cc010f91f97bc7381584e622d6e245cb",
    "confirmations": 514838,
    "time": 1304684716,
    "blocktime": 1304684716
  },
  "error": null,
  "id": "curltext"
}