{
  "result": {
    "txid": "37bde612583940e4f86c0d2fe8c6850591f2869f9c962805c187cbcbecdc264b",
    "hash": "2029482e99192328abf9c687ab82bef95d898a9fa559d6c9cf9e6ba10c3c2d94",
    "version": 1,
    "size": 377,
    "vsize": 350,
    "weight": 1400,
    "locktime": 1005824201,
    "vin": [
      {
        "coinbase": "0312af092cfabe6d6d9582089b8f45fc0232d18f8f2f7b627aa9006245691c8dbd0c138fe42eb013da10000000f09f909f082f4632506f6f6c2f114d696e6564206279206661727669746b6100000000000000000000000000000000000005009b0f0000",
        "sequence": 0
      }
    ],
    "vout": [
      {
        "value": 6.26796205,
        "n": 0,
        "scriptPubKey": {
          "asm": "OP_DUP OP_HASH160 c825a1ecf2a6830c4401620c3a16f1995057c2ab OP_EQUALVERIFY OP_CHECKSIG",
          "hex": "76a914c825a1ecf2a6830c4401620c3a16f1995057c2ab88ac",
          "reqSigs": 1,
          "type": "pubkeyhash",
          "addresses": [
            "1KFHE7w8BhaENAswwryaoccDb6qcT6DbYY"
          ]
        }
      },
      {
        "value": 0.00000000,
        "n": 1,
        "scriptPubKey": {
          "asm": "OP_RETURN aa21a9ede19b575508bd5c15d4731b11ff41185c1785efbfde7f486d201d9a008ebd1423 0000000000000000",
          "hex": "6a24aa21a9ede19b575508bd5c15d4731b11ff41185c1785efbfde7f486d201d9a008ebd1423080000000000000000",
          "type": "nulldata"
        }
      },
      {
        "value": 0.00000000,
        "n": 2,
        "scriptPubKey": {
          "asm": "OP_RETURN 52534b424c4f434b3a7614b1b58355d46d53337a08878791f100395ca65deb22ec8e1cc81a00253f5f",
          "hex": "6a4c2952534b424c4f434b3a7614b1b58355d46d53337a08878791f100395ca65deb22ec8e1cc81a00253f5f",
          "type": "nulldata"
        }
      },
      {
        "value": 0.00000000,
        "n": 3,
        "scriptPubKey": {
          "asm": "OP_RETURN b9e11b6d3d99cfceceec2dd73a97bac7e5852feb18fb764d06a8387ef4129438f999ea1a",
          "hex": "6a24b9e11b6d3d99cfceceec2dd73a97bac7e5852feb18fb764d06a8387ef4129438f999ea1a",
          "type": "nulldata"
        }
      }
    ],
    "hex": "010000000001010000000000000000000000000000000000000000000000000000000000000000ffffffff640312af092cfabe6d6d9582089b8f45fc0232d18f8f2f7b627aa9006245691c8dbd0c138fe42eb013da10000000f09f909f082f4632506f6f6c2f114d696e6564206279206661727669746b6100000000000000000000000000000000000005009b0f00000000000004ad265c25000000001976a914c825a1ecf2a6830c4401620c3a16f1995057c2ab88ac00000000000000002f6a24aa21a9ede19b575508bd5c15d4731b11ff41185c1785efbfde7f486d201d9a008ebd142308000000000000000000000000000000002c6a4c2952534b424c4f434b3a7614b1b58355d46d53337a08878791f100395ca65deb22ec8e1cc81a00253f5f0000000000000000266a24b9e11b6d3d99cfceceec2dd73a97bac7e5852feb18fb764d06a8387ef4129438f999ea1a01200000000000000000000000000000000000000000000000000000000000000000c9a8f33b",
    "blockhash": "000000000000000000065010901ff4696055945269a9cdc162b204e4d792d96d",
    "confirmations": 1047,
    "time": 1592102805,
    "blocktime": 1592102805
  },
  "error": null,
  "id": "curltext"
}