{
  "result": {
    "txid": "760755fed67c1b2441e3c0fa217162b006d876cc5cd91431d4c0fc0112c73675",
    "hash": "760755fed67c1b2441e3c0fa217162b006d876cc5cd91431d4c0fc0112c73675",
    "version": 1,
    "size": 796,
    "vsize": 796,
    "weight": 3184,
    "locktime": 0,
    "vin": [
      {
        "txid": "4d5e3ab9c25e487123bb0ec47cc5d84b1cc2605fb211cd4f811ba030162cae8e",
        "vout": 1,
        "scriptSig": {
          "asm": "304402207e143532bda1981e6f01bf099fb8ea0e03d79bdb599a5455c1ae48b833e00dcd02201594c3693fd5f47116537e8ea10760890f9588f97f9e4d495cea684d2c18e4bd[ALL] 04c4eb23d1d124e26b7ff2e39aca2b942a90f30ad4487e2df900a57393ddbd65ac177676995a94583c357fd5f8d4dbbb5dcaf8ebd3b1d44deb7ab5aafa942160e8",
          "hex": "47304402207e143532bda1981e6f01bf099fb8ea0e03d79bdb599a5455c1ae48b833e00dcd02201594c3693fd5f47116537e8ea10760890f9588f97f9e4d495cea684d2c18e4bd014104c4eb23d1d124e26b7ff2e39aca2b942a90f30ad4487e2df900a57393ddbd65ac177676995a94583c357fd5f8d4dbbb5dcaf8ebd3b1d44deb7ab5aafa942160e8"
        },
        "sequence": 4294967295
      },
      {
        "txid": "56b0e61cb2ac76bfb2bedf78231d72c7746a735b4df4d11c99cbfb0222302bb6",
        "vout": 1,
        "scriptSig": {
          "asm": "304402206292c38be9f8d13fbf3b82295e0989d0928aed15174a6c2a7ba3be2a7059ac0c0220020822799f8d652d4eb16bbef3d1a48a19f7dc08657ade63898120f169760289[ALL] 04f93889bec8e95ec544c73c49459243210776c6089d7c4b95c4d12478538440e910082a052e10b58124c9cdde94a83140c1d8be9319909ee1ac4ca2423911e233",
          "hex": "47304402206292c38be9f8d13fbf3b82295e0989d0928aed15174a6c2a7ba3be2a7059ac0c0220020822799f8d652d4eb16bbef3d1a48a19f7dc08657ade63898120f169760289014104f93889bec8e95ec544c73c49459243210776c6089d7c4b95c4d12478538440e910082a052e10b58124c9cdde94a83140c1d8be9319909ee1ac4ca2423911e233"
        },
        "sequence": 4294967295
      },
      {
        "txid": "92099c03af9996261bb39d12d7d9b241736a2e739bdb3267a9183469ea4a945c",
        "vout": 1,
        "scriptSig": {
          "asm": "304502205dcbcfbbfd6bdf7bf37777ddde8f9efc8abe82613c8b83e4ffa1134048868b18022100e8a69e4612cd9b85e4de6dba8060f994de8a742ead4ef0fb22908f2a32ef81d3[ALL] 04e64cfda7b8087108e93fdce9263fba674193773dc3a9c1101e1ce493b67a9ba9e69a54c26e369d1f698f60018e814efd9e07c61b24969aff6c17d470ea23232f",
          "hex": "48304502205dcbcfbbfd6bdf7bf37777ddde8f9efc8abe82613c8b83e4ffa1134048868b18022100e8a69e4612cd9b85e4de6dba8060f994de8a742ead4ef0fb22908f2a32ef81d3014104e64cfda7b8087108e93fdce9263fba674193773dc3a9c1101e1ce493b67a9ba9e69a54c26e369d1f698f60018e814efd9e07c61b24969aff6c17d470ea23232f"
        },
        "sequence": 4294967295
      },
      {
        "txid": "fe4b4a7276e9eb1f0081c768dc440d0c3744c369651ab22f8745149f14d043ec",
        "vout": 1,
        "scriptSig": {
          "asm": "3045022022a816981571f633fc3fb3c4600b09cf5de34ea830082a36e75299d96cc180b702210086d382a8374e0c5fe6bb06e0f436e12a7750ee934bbaee5ecebc3a63ef99eb73[ALL] 04e7e74da7be384310fb703304fa0028dbb11bc2fd53d518483383d971df11b611e2d3e4505f48267b03bd3b88b927ccca48719d1ca7995618b8f023bdf6088198",
          "hex": "483045022022a816981571f633fc3fb3c4600b09cf5de34ea830082a36e75299d96cc180b702210086d382a8374e0c5fe6bb06e0f436e12a7750ee934bbaee5ecebc3a63ef99eb73014104e7e74da7be384310fb703304fa0028dbb11bc2fd53d518483383d971df11b611e2d3e4505f48267b03bd3b88b927ccca48719d1ca7995618b8f023bdf6088198"
        },
        "sequence": 4294967295
      }
    ],
    "vout": [
      {
        "value": 201.88044908,
        "n": 0,
        "scriptPubKey": {
          "asm": "OP_DUP OP_HASH160 2ffc440711571939c79b6e579112eee349faa664 OP_EQUALVERIFY OP_CHECKSIG",
          "hex": "76a9142ffc440711571939c79b6e579112eee349faa66488ac",
          "reqSigs": 1,
          "type": "pubkeyhash",
          "addresses": [
            "15NixkHzN4qW5h2kkmUwpUTf5jCEJNCw9o"
          ]
        }
      },
      {
        "value": 59.64025093,
        "n": 1,
        "scriptPubKey": {
          "asm": "OP_DUP OP_HASH160 f454edecb97a2d91b425285a4d0b3ab491e74954 OP_EQUALVERIFY OP_CHECKSIG",
          "hex": "76a914f454edecb97a2d91b425285a4d0b3ab491e7495488ac",
          "reqSigs": 1,
          "type": "pubkeyhash",
          "addresses": [
            "1PGucoekd9R5ALVKkPCHzBgww55Lk7K7B2"
          ]
        }
      }
    ],
    "hex": "01000000048eae2c1630a01b814fcd11b25f60c21c4bd8c57cc40ebb2371485ec2b93a5e4d010000008a47304402207e143532bda1981e6f01bf099fb8ea0e03d79bdb599a5455c1ae48b833e00dcd02201594c3693fd5f47116537e8ea10760890f9588f97f9e4d495cea684d2c18e4bd014104c4eb23d1d124e26b7ff2e39aca2b942a90f30ad4487e2df900a57393ddbd65ac177676995a94583c357fd5f8d4dbbb5dcaf8ebd3b1d44deb7ab5aafa942160e8ffffffffb62b302202fbcb991cd1f44d5b736a74c7721d2378dfbeb2bf76acb21ce6b056010000008a47304402206292c38be9f8d13fbf3b82295e0989d0928aed15174a6c2a7ba3be2a7059ac0c0220020822799f8d652d4eb16bbef3d1a48a19f7dc08657ade63898120f169760289014104f93889bec8e95ec544c73c49459243210776c6089d7c4b95c4d12478538440e910082a052e10b58124c9cdde94a83140c1d8be9319909ee1ac4ca2423911e233ffffffff5c944aea693418a96732db9b732e6a7341b2d9d7129db31b269699af039c0992010000008b48304502205dcbcfbbfd6bdf7bf37777ddde8f9efc8abe82613c8b83e4ffa1134048868b18022100e8a69e4612cd9b85e4de6dba8060f994de8a742ead4ef0fb22908f2a32ef81d3014104e64cfda7b8087108e93fdce9263fba674193773dc3a9c1101e1ce493b67a9ba9e69a54c26e369d1f698f60018e814efd9e07c61b24969aff6c17d470ea23232fffffffffec43d0149f1445872fb21a6569c344370c0d44dc68c781001febe976724a4bfe010000008b483045022022a816981571f633fc3fb3c4600b09cf5de34ea830082a36e75299d96cc180b702210086d382a8374e0c5fe6bb06e0f436e12a7750ee934bbaee5ecebc3a63ef99eb73014104e7e74da7be384310fb703304fa0028dbb11bc2fd53d518483383d971df11b611e2d3e4505f48267b03bd3b88b927ccca48719d1ca7995618b8f023bdf6088198ffffffff026c1e4db3040000001976a9142ffc440711571939c79b6e579112eee349faa66488ac05cd7b63010000001976a914f454edecb97a2d91b425285a4d0b3ab491e7495488ac00000000",
    "blockhash": "00000000000000b8b49d0b61b14994b5c0a511c4b48a1e251ff2b479b2e6f678",
    "confirmations": 413533,
    "time": 1361388002,
    "blocktime": 1361388002
  },
  "error": null,
  "id": "curltext"
}