{
  "result": {
    "txid": "819408fd47cb59086ea513bf1b6e9221b33e2efe44d5ec96f39ba8a8ae642102",
    "hash": "296fe26b03d92fb5854a5068ec00b52eb79f19bdeb69eb4ce2ea81f374b76cb8",
    "version": 1,
    "size": 284,
    "vsize": 202,
    "weight": 806,
    "locktime": 0,
    "vin": [
      {
        "txid": "657be29a427e17d226d79ba33ef77331af99c02bc2767d1432e2a098a7667cc3",
        "vout": 0,
        "scriptSig": {
          "asm": "",
          "hex": ""
        },
        "txinwitness": [
          "3045022100d1e5062b461c991d4f6ec5b07e2eaedcae9b93854987e985dde5bcbe8e2a5a5e022001607afa757f9208c3b7633d5a808d67ad535382f878829c36ad4d32d749dd4801",
          "025633b0499b990d3a379fdd9e651f29f59feb9a7e09476b7e72db2d9fddf02901"
        ],
        "sequence": 4294967295
      }
    ],
    "vout": [
      {
        "value": 0.00990570,
        "n": 0,
        "scriptPubKey": {
          "asm": "0 afaee787889c62abffea96aee9db74199af359c9",
          "hex": "0014afaee787889c62abffea96aee9db74199af359c9",
          "reqSigs": 1,
          "type": "witness_v0_keyhash",
          "addresses": [
            "tb1q47hw0pugn332hll2j6hwnkm5rxd0xkwfu0k9k2"
          ]
        }
      },
      {
        "value": 0.00000000,
        "n": 1,
        "scriptPubKey": {
          "asm": "OP_RETURN 00096a3300025404fffd6d55156615a78d04325153a7ee7f847e00e2594db11abe698faeee6dbc483e41af68f2a6dade964fe7655eee588905050bdea03713018cf28984ccf0bfdf0049f7f47c4370fe",
          "hex": "6a4c5000096a3300025404fffd6d55156615a78d04325153a7ee7f847e00e2594db11abe698faeee6dbc483e41af68f2a6dade964fe7655eee588905050bdea03713018cf28984ccf0bfdf0049f7f47c4370fe",
          "type": "nulldata"
        }
      }
    ],
    "hex": "01000000000101c37c66a798a0e232147d76c22bc099af3173f73ea39bd726d2177e429ae27b650000000000ffffffff026a1d0f0000000000160014afaee787889c62abffea96aee9db74199af359c90000000000000000536a4c5000096a3300025404fffd6d55156615a78d04325153a7ee7f847e00e2594db11abe698faeee6dbc483e41af68f2a6dade964fe7655eee588905050bdea03713018cf28984ccf0bfdf0049f7f47c4370fe02483045022100d1e5062b461c991d4f6ec5b07e2eaedcae9b93854987e985dde5bcbe8e2a5a5e022001607afa757f9208c3b7633d5a808d67ad535382f878829c36ad4d32d749dd480121025633b0499b990d3a379fdd9e651f29f59feb9a7e09476b7e72db2d9fddf0290100000000",
    "blockhash": "0000000000000035aeb6642b52bb3f43931bbb673be1657a5fcfa1e44d38eb98",
    "confirmations": 8,
    "time": 1592678921,
    "blocktime": 1592678921
  },
  "error": null,
  "id": "curltext"
}