{
  "result": {
    "txid": "b78a3a2226337f5e305052564ee7c773b91136510a6ecc001f67954ad5a7be1d",
    "hash": "0f4d3c61ba9b6702b6b5a9581afc72bde51a73f5bf2e91804fe6dd47c8cc2642",
    "version": 2,
    "size": 247,
    "vsize": 166,
    "weight": 661,
    "locktime": 0,
    "vin": [
      {
        "txid": "77504fabd86750a52920c33202f6edc1e0f8d937248d06720642b9b409b6a992",
        "vout": 1,
        "scriptSig": {
          "asm": "00146f76f54c16085cac1e8326a7b970c5b59ba0a79d",
          "hex": "1600146f76f54c16085cac1e8326a7b970c5b59ba0a79d"
        },
        "txinwitness": [
          "30440220270a9e404c2876e672976c5a9ff9d0154898265b64b281b5caef0afafbc2f6df022065deb25fa4037d359ba8a785f7bcc1d7ce7eea2084e9b068a8bef35c2fafa0f401",
          "0397e99f910f5b838f4df3fc682322006568bdb5698723e126c9ce81ca8055a9ee"
        ],
        "sequence": 4294967295
      }
    ],
    "vout": [
      {
        "value": 0.04577018,
        "n": 0,
        "scriptPubKey": {
          "asm": "OP_HASH160 e20bf0c9b43bf6dc438a3facc797407408ffd11e OP_EQUAL",
          "hex": "a914e20bf0c9b43bf6dc438a3facc797407408ffd11e87",
          "reqSigs": 1,
          "type": "scripthash",
          "addresses": [
            "3NJEwYTy8t7fpEJMF6XmVesbjcn3ZHfaPN"
          ]
        }
      },
      {
        "value": 0.07254289,
        "n": 1,
        "scriptPubKey": {
          "asm": "OP_HASH160 869440efb79855990ef3e43bd0298644f1db7419 OP_EQUAL",
          "hex": "a914869440efb79855990ef3e43bd0298644f1db741987",
          "reqSigs": 1,
          "type": "scripthash",
          "addresses": [
            "3Dxc56PfFwXc2xaapRCxmUAQRoW5iWewxd"
          ]
        }
      }
    ],
    "hex": "0200000000010192a9b609b4b9420672068d2437d9f8e0c1edf60232c32029a55067d8ab4f507701000000171600146f76f54c16085cac1e8326a7b970c5b59ba0a79dffffffff02fad645000000000017a914e20bf0c9b43bf6dc438a3facc797407408ffd11e8711b16e000000000017a914869440efb79855990ef3e43bd0298644f1db741987024730440220270a9e404c2876e672976c5a9ff9d0154898265b64b281b5caef0afafbc2f6df022065deb25fa4037d359ba8a785f7bcc1d7ce7eea2084e9b068a8bef35c2fafa0f401210397e99f910f5b838f4df3fc682322006568bdb5698723e126c9ce81ca8055a9ee00000000",
    "blockhash": "0000000000000000000ed917d845ed7146772905a97040d7213c2335d9d5e08c",
    "confirmations": 1053,
    "time": 1592100857,
    "blocktime": 1592100857
  },
  "error": null,
  "id": "curltext"
}